:020000020000FC
:1000000001C09CC04CEA4DBFBB27DD27FF27112450
:1000100042E0142AEE24E1D1F2D1B8D163D140E01C
:1000200046B94CE348BB4FE345BB4BEF42BB40E016
:1000300041BB40EC44BB40E047BB44274FBB4FE0D3
:1000400045BF40E44BBF7894B09B07C0023079F0C5
:10005000033051F010FC13C0F7CF4FEFB099F4CF3D
:100060004A95E1F73FD1F0CF90D304E0EDCFC0E661
:100070006C2DDBD15ED2E9D1D0D204E0E5CF4FEFD9
:100080004D7F4E7F142240B33091B4002091B500D3
:1000900030E020E040FF21E841FF3FE743FF31E847
:1000A00046B342FF2FE73093B4002093B50030E011
:1000B00040B344FF316045FF326046FF346047FF84
:1000C000386043B340FF306141FF306242FF30642B
:1000D00043FF30683093B60030E044FF316045FFA5
:1000E000326046B343FF346044FF386045FF3061FF
:1000F0003093B70045E84F9340E04F93C2EB14E0D4
:1001000062E0610FCF936F9329C2639563954D2D84
:100110004093AF00482D4093AE009394C2EB95D12D
:1001200099246093B1008092B0004091AF00D42E2A
:100130004091AE00842E42E0142A86CF5FB64F93E2
:100140003F9343E032E0B09905C043E03A950000A8
:1001500099F0F9CF32E04A950000A9F707C06F90F7
:10016000AF911F912F91CF916F91522D3F914F9150
:100170005FBE80E48ABF1895252E86B36F93CF9318
:1001800056E06EE0CEE676B37370A1F07795881FE7
:100190005A95C9F7000076B3737061F07795881FA0
:1001A00057E0899386B3837029F05A9500006A95C9
:1001B00051F7D9CFC137B8F240916E0030916F003E
:1001C00071F43E7F3F1559F4423711F491E0CBCFE3
:1001D000403511F493E0C7CF4E3409F40AC04832D9
:1001E00011F0463321F4913001F1933031F190E078
:1001F000BACF2F931F93AF936F9230916F002091DE
:10020000700037952795229530FF01C020952F70FB
:100210002A3019F02530E9F0A2CF0430B9F46CD0BF
:10022000EE20B1F492E003E09ACF2F931F93AF93A7
:100230006F92DAD040D002E092CF2F931F93AF930A
:100240006F92023019F0D0D0002789CFDFD087CF4E
:1002500022C011FE1FC04D2D4093AF00482D40938A
:10026000AE004091B000842E6091B100C2EB46D048
:100270004091AF00D42E4091AE00842E4091B30047
:10028000433C11F043EC01C04BE44093B30041E028
:10029000142A65CF64CFFF2421E018E04F2DE794A6
:1002A00008F042274795FF1C1A95C1F7EE242F2D21
:1002B0002E7FF22E54CF573029F05395881F5A9530
:1002C000E9F789936C2F6D56C62ECEE6A1E6BF9353
:1002D000BB2749914D936A95E1F7BF9164E560931F
:1002E000600008954AEAF42E99279924882400276B
:1002F00033243092C80008956D2DCFEC162F7991DC
:1003000037B33360232F48B34E7F426056E0779572
:1003100048BB37BB30E001C057E00000779508F0DC
:10032000422748BB5A95C9F770FF42271A95799121
:1003300048BB91F7582D503041F0779508F042278F
:1003400048BB00005A95C9F7788100004C7F48BB34
:1003500055E05A95F1F7C09AB898B9980895409128
:10036000D0004B3443EC09F04BE44093D0000895A7
:1003700043EC4093D00040E84093CF00F0DF40E0F2
:100380004093D1004093D20064E0089544E0A42E4D
:1003900040E84093CF0043EC4093D0001A2D6A2DE3
:1003A000C1EDC895099231966A95D9F762E0610F5F
:1003B000D2D0639563959394CFEC47D0D62E9924F1
:1003C000D092B1008092B0006D2DFF27EFECC2EB10
:1003D000019009926A95E1F7089540E84093CC00B6
:1003E00042ED4093CD000895CF935F938F92CCEC74
:1003F00062E0882483DF8F905F91CF91089540E879
:100400004093C9004AE54093CA0008958F92C9EC11
:1004100062E0882473DF8F90089540E84093CF0016
:100420004EE14093D00062E00895CF936F936C0F3C
:100430004FEF47954881242F27952427209529930E
:10044000C617B9F76F91CF910895112777247A9441
:10045000CF936F93312F48E0340F6A95E9F726E088
:100460006F916F936C0F63956395488158E0479542
:1004700008F027E02A95A1F4371526E088F43A958C
:10048000732E513011F459E0C3955A9590FA1EF02D
:1004900037D01A9502C01BD013956F91CF91D8CF4A
:1004A0003A9521F05A9519F7C395DFCF6F91CF9107
:1004B00090FA3EF0103051F06A95185F38F46A9562
:1004C0000895812E185010F06395812E0895452FC0
:1004D00059E0541B3881331F2FEF220F5A95E9F74B
:1004E00032232095269548814223342B4881441F8E
:1004F0003993C61301C008953881331F3993F9CF5A
:10050000452F59E0541B4C2F4395C62F3A913795F0
:100510003883C413FBCF3A9137952FEF5A9511F0DA
:10052000220FFCCF3223209548814223342B38837D
:100530000895CF936F93C0E603D06F91CF91089544
:100540006C0F488138E04795221F3A95E1F72993CF
:10055000C617B9F70895CF936F93CFEC0AD04095A3
:10056000309539934883CA9562E0EADF6F91CF9165
:1005700008956C0FC3954991433C11F04B34A9F495
:100580004FEF3FEF299118E037FB50F95227441FF6
:10059000331F4E7F2695579520F450E8352755E0B8
:1005A00045271A9589F7C61769F70895C8950992DE
:1005B00031966A95D9F72CC0C895099233FA36F46A
:1005C0003196C8950992E89433F802C00024099244
:1005D0003196625089F71CC00080099231966A9565
:1005E000D9F716C0EEBBFFBBE09A0DB20992319667
:1005F0006A95C1F70DC040E84093CF0068E0C1EDB7
:10060000332009F4D3CF32FCD7CF30FCE5CFEACF8B
:1006100037FC3324A4DEC0ED089506D09394CFECCC
:1006200014DFD62E9924089533244091620030912E
:100630006300407609F41BC04034B1F0403209F049
:1006400013C0313059F0323051F0333049F0393085
:1006500041F03A3039F03B3031F095C094C093C04E
:1006600092C091C090C08FC08EC041E020C0303099
:10067000E9F03130D1F03330C1F0353079F0363037
:1006800029F1373009F13830A9F0393051F03A30DA
:10069000B9F03B3051F03C30B9F075C0E0906400E7
:1006A00072C0409164004093C8006DC042E0F7E022
:1006B000EEEE52C04091C80041E0F7E0E1ED4CC0E1
:1006C000F7E0E8ED41E048C0A8DE089540916200FF
:1006D000413849F030916500313071F0323081F0AD
:1006E0003330D9F0089530916500313269F03232FB
:1006F00079F0333289F00895F7E0EAEB42E12CC05B
:10070000F7E0ECEC42E228C0F7E0EEED49E024C06F
:10071000F7E0E0EF41E320C01FC03CE0332E309112
:1007200064003030A1F0323051F0333061F03130BC
:1007300011F0BBCF28C0F8E0E6E24EE10DC0F8E0D2
:10074000E6E346E209C0F8E0EAE446E405C0332403
:10075000F8E0E2E244E000C0A0906900AA2021F4A1
:10076000A0906800A41608F0A42E4A2DBB24477060
:1007700009F0B3944A2D469546954695B40E43EC40
:100780004093D0000BC0F4DD089502D047DF0895F8
:100790004B2D413011F4EFDD0895BA943A2D3850C5
:1007A00018E018F41A2DBB24B394A32E24DF62E0C2
:1007B000610FD1DE63956395089512010001000079
:1007C000000882820180000101020001090222006A
:1007D0000101028050090400000103000003092107
:1007E000010100012231000705810308000A000011
:1007F00005010904A10105010901A1000930093120
:100800001581257F750895028102C0160509190119
:10081000291015002501750195105500650081020C
:10082000C000040309021E035061756C20517572EB
:100830006573686920002603417263616465205313
:100840007469636B2076312E3020460341544D6528
:10085000676138206261736564205553422041729C
:1008600063616465204A6F79737469636B007F7E8E
:100870007D7C7B7A79787776757473727171706F1D
:100880006E6D6C6B6A6968676666656463626160F9
:100890005F5E5E5D5C5B5A595858575655545353CA
:1008A0005251504F4F4E4D4C4B4B4A49484747468B
:1008B00045444343424140403F3E3D3D3C3B3A3A44
:1008C000393837373635343433323231302F2F2EF2
:1008D0002D2D2C2B2B2A2929282727262524242394
:1008E00022222121201F1F1E1D1D1C1B1B1A19192E
:1008F00018181716161514141313121111100F0FC0
:100900000E0E0D0C0C0B0B0A0A090808070706054A
:1009100005040403030201010000FFFFFEFEFDFCCD
:10092000FCFBFBFAFAF9F9F8F8F7F7F6F6F5F4F448
:10093000F3F3F2F2F1F1F0F0EFEFEEEEEDEDECECBF
:10094000EBEBEAEAE9E9E8E8E7E7E6E6E5E5E4E42F
:10095000E3E3E2E2E2E1E1E0E0DFDFDEDEDDDDDC99
:10096000DCDBDBDBDADAD9D9D8D8D7D7D7D6D6D5FE
:10097000D5D4D4D3D3D3D2D2D1D1D0D0D0CFCFCE5F
:10098000CECDCDCDCCCCCBCBCBCACAC9C9C9C8C8BA
:10099000C7C7C7C6C6C5C5C5C4C4C3C3C3C2C2C111
:1009A000C1C1C0C0BFBFBFBEBEBEBDBDBCBCBCBB65
:1009B000BBBABABAB9B9B9B8B8B8B7B7B6B6B6B5B6
:1009C000B5B5B4B4B4B3B3B2B2B2B1B1B1B0B0B002
:1009D000AFAFAFAEAEAEADADADACACACABABABAA4A
:1009E000AAAAA9A9A9A8A8A8A7A7A7A6A6A6A5A58F
:1009F000A5A4A4A4A3A3A3A2A2A2A1A1A1A1A0A0D3
:100A0000A09F9F9F9E9E9E9D9D9D9C9C9C9C9B9B12
:100A10009B9A9A9A9999999998989897979797964F
:100A2000969695959594949494939393929292928A
:100A3000919191919090908F8F8F8F8E8E8E8D8DC2
:100A40008D8D8C8C8C8C8B8B8B8B8A8A8A898989F7
:100A5000898888888887878787868686868585852A
:0E0A6000858484848483838382828282818160
:00000001FF
