:020000020000FC
:1000000012C0189518951895189518951895189563
:100010001895189518951895189518951895189578
:100020001895189518950FED0DBF00E00ABB0FEF5E
:100030000BBB00E301BB0FEE02BB00E007BB0FEA06
:1000400008BB00E108600DB97724789400C08FEFF9
:100050009FEFBE98B39B26D071D000FB96F901FBB1
:1000600097F9B39B1FD004FB84F905FB86F9B39B7A
:1000700019D006FB87F907FB85F9B39B13D010FB5A
:1000800095F911FB94F9B39B0DD002FB80F903FBAA
:1000900083F9B39B07D012FB92F913FB93F9B39B3F
:1000A00001D0D8CF0F931F932F933F930FEF1BD007
:1000B000103891F428D002E816D0123461F423D01D
:1000C0000AE511D020D0082F27D00DD01CD0092F41
:1000D00023D009D018D0BE98B39BFECF3F912F916B
:1000E0001F910F9108950FB9BE9ABF98BD98BB9804
:1000F00010E41EB918E11DB9B39904C0769BFCCF7A
:100100001FB10895E8CF0F93C498BC9A05E00A95F3
:10011000F1F7BC980F9108950795111F0795111FCE
:100120000795111F0795111F0795111F0795111F9F
:100130000795111F0795111F012F089500271127FB
:10014000949A24E1B39BAEDF2A95E1F7949838E0C6
:1001500095982AE0B39BA6DF2A95E1F70695839947
:100160000068959A2AE0B39B9DDF2A95E1F73A95BE
:1001700079F734E095982AE0B39B94DF2A95E1F76C
:10018000169583991860959A2AE0B39B8BDF2A9580
:08019000E1F73A9579F70895B3
:00000001FF
