:020000020000FC
:1000000019C0189518951895189518950CC018953D
:100010001895189518951895189518951895189578
:10002000189518951895BFB6A094A49AAC9AAC9858
:10003000BFBE18950FE50DBF04E00EBF0FEF02BB6A
:100040000CE001BB0FE305BB0FE304BB0FEF0F7D1B
:1000500008BB0FE107BB05E003BF00E00FBD03E0F5
:1000600008600EBD02E20BBD00E70ABD00E109BF5A
:1000700078942224112433244424AA2400E0602EFE
:100080000FEB702E802ED6D1C098C09A22B32C6070
:100090002FEF22BBE9D020B316B300E021FF039578
:1000A00020FF039516FD0395033081F73DD001E055
:1000B000202E00E030E024FD06C024E42BBD24ED1A
:1000C0002ABD21E0622E22B3277F246022BBCCD040
:1000D00020B316B321FF02E020FF03E016FF01E08A
:1000E00024FF31E022B3237F22BBBED020B316B35E
:1000F00021FF06E020FF05E016FF04E024FD06C016
:1001000022E22BBD20E72ABD22E0622E30FD0068EE
:10011000102E0F7710E0F4E0EAE9E00FF11FC89528
:10012000702CAAD187D111C00F931F932F9304E293
:100130001CEB20E52A95F1F7A8951A95D1F70A95B9
:10014000B9F72F911F910F910895C098C09AC09848
:10015000C09A02E204BB0FED05BB00E307BB0FED45
:1001600008BB0CE001BB07EF02BB30E06BD02220E4
:1001700031F100B306FDFACF8FEF9FEF442405E580
:100180003AD0113091F474D001E435D0123469F4CE
:10019000BCD00AE530D0CCD025D0082F2CD020D12F
:1001A0000FD0092F28D030E032BF32B7303E18F4DC
:1001B00000B306FFFACF00E0201609F0D2CF59CFE6
:1001C000062D003071F0012D07FD06C0442049F0D6
:1001D000AA2039F4906F05C0442019F4AA2009F42C
:1001E000906F0895012D0078003021F0062D003029
:1001F00009F48860089510E028E030E032BF32B79B
:10020000303EB8F436B333FDFACF3FED00FF3D7F0B
:1002100035BB069530E032BF32B7303E50F436B3CE
:1002200033FFFACF33B3169530FD10682A9529F7BE
:100230000895C4980000000000000000C49A10E077
:1002400018CF089522B32C6022BB0ED020B316B372
:1002500000E021FF039520FF039516FD0395033071
:1002600009F408952224089542E04A95F1F708958B
:10027000C49822B3277F246022BBF6DF20B316B3D5
:10028000332424FF3394F1E0EAE4012DE00F00274A
:10029000F01F099406C005C004C00CC014C020C0E3
:1002A00028C021FF9F7D20FF9D7F16FF9F7B24FF9D
:1002B000877F28C021FF8E7F20FF977F16FF9F77C3
:1002C00024FF877F1FC021FF9F7B20FF977F16FFA2
:1002D0009D7F24FD17C016FF926016FF8E7F12C00F
:1002E00021FF9F7D20FF9F7716FF9F7B24FF877F45
:1002F00009C021FF9F7E20FF9F7D16FF9F7724FF6F
:10030000877F00C005E0C49A0895C49822B32B7F6C
:10031000286022BBA9DF20B316B321FF8F7E20FF08
:100320008F7B16FF8F7724FF8F7D05E0C49A089599
:10033000C49822B3237F22BB97DF20B316B300E01B
:10034000101661F003951016A9F00395101691F0A0
:1003500003951016C1F003951016F1F016FF9F7764
:1003600020FF9F7E21FF9E7F162D103099F524FFE0
:10037000977F33C016FF9F7720FF9F7E21FF977FD7
:1003800024FF9E7F2AC016FF9F7B20FF9F7E21FFB8
:100390009F7D24FF9D7F21C016FF9F7720FF9F7EBA
:1003A00021FF9F7D24FF9B7F18C0A0FA16FF96F9BE
:1003B00020FF95F921FF97F924FF94F90EC016FF4D
:1003C0009F7720FF9F7E21FF9F7D24FF9B7F24FF3F
:1003D0009F7D03C024FF439400C005E0C49A0895A4
:1003E000C49822B32C6022BB3FDF20B316B300E0D9
:1003F000101661F00395101649F00395101649F098
:100400000395101619F00395101631F024FF9B7F09
:100410000EC024FF8E7F0BC024FF9E7F08C024FFE8
:100420009F7E05C024FF9F7E24FF9F7700C007E0CA
:10043000C49A08950F931F93BD9A92989398C59864
:10044000082D18E0929A07FF9298939A9398000FBC
:100450001A95C1F7072D17FC0F7718E0929A07FF3E
:100460009298939A9398000F1A95C1F7C59AC598D8
:100470001F910F91A89508950F931F93062D00309B
:1004800039F0013009F002C007EC03C009E801C0EF
:100490000FEB802E1F910F910895C0F9A4B099928F
:0E04A00082F88098A18883A78991A4C7AF92A3
:00000001FF
