:020000020000FC
:1000000001C00FC14CEA4DBFBB27DD27FF271124DC
:1000100042E0142AEE2454D265D22BD2D6D140E04D
:1000200046B94BEF42BB4FE345BB4CE348BB48E10D
:1000300041BB40EC44BB4CE147BB44274FBB4FE0C6
:1000400045BF40E44BBF7894B09B07C0023079F0C5
:10005000033051F010FC37C0F7CF4FEFB099F4CF19
:100060004A95E1F7B2D1F0CF03D404E0EDCFC0E67A
:100070006C2D4ED2D1D25CD243D304E0E5CF6EE1F9
:100080006A95F1F70895C39AC49AF9DFF8DFC49826
:10009000F6DF442758E016B3469515FF4068C3982D
:1000A000EEDFC39AECDF5A95B1F70895442758E084
:1000B00016B3469515FF4068C398E1DFC39ADFDFAA
:1000C0005A95B1F708954FEF4D7F4E7F1422C29A93
:1000D0000000000043B33091B4002091B50030E03F
:1000E00020E040FF21E841FF2FE742FF31E843FFD6
:1000F0003FE740B341FF21E840FF2FE746FF31E8EB
:1001000045FF3EE73093B4002093B50030E020E097
:1001100043B344FF316045FF326040B347FF346072
:10012000C2980000000043B3C29A142F136F133F0C
:1001300029F4330F44FF316045FF21601BEE12BBF1
:100140000000000040B341FF326040FF346046FFD2
:10015000316045FF216013EE12BB0000000040B388
:1001600041FF306240FF306146FF386045FF306834
:100170001BEF12BB0000000040B345FF306413EFDB
:1001800012BB5F936F937FDF5091B4006091B50015
:1001900040FD316041FD326042FD226043FD21603F
:1001A00044FD61E845FD6FE746FD51E847FD5FE727
:1001B0005093B4006093B50079DF403140F440FDC6
:1001C000346041FD386042FD306143FD3062309360
:1001D000B6002093B7006F915F9148EF4F9340E0D6
:1001E0004F93C2EB14E062E0610FCF936F9329C28B
:1001F000639563954D2D4093AF00482D4093AE001D
:100200009394C2EB95D199246093B1008092B00091
:100210004091AF00D42E4091AE00842E42E0142ACB
:1002200013CF5FB64F933F9343E032E0B09905C0E0
:1002300043E03A95000099F0F9CF32E04A9500008A
:10024000A9F707C06F90AF911F912F91CF916F9138
:10025000522D3F914F915FBE80E48ABF1895252EA5
:1002600086B36F93CF9356E06EE0CEE676B37370AD
:10027000A1F07795881F5A95C9F7000076B373707F
:1002800061F07795881F57E0899386B3837029F0D2
:100290005A9500006A9551F7D9CFC137B8F240910D
:1002A0006E0030916F0071F43E7F3F1559F4423774
:1002B00011F491E0CBCF403511F493E0C7CF4E3429
:1002C00009F40AC0483211F0463321F4913001F1AB
:1002D000933031F190E0BACF2F931F93AF936F9289
:1002E00030916F002091700037952795229530FF4F
:1002F00001C020952F702A3019F02530E9F0A2CFE7
:100300000430B9F46CD0EE20B1F492E003E09ACF5F
:100310002F931F93AF936F92DAD040D002E092CF29
:100320002F931F93AF936F92023019F0D0D0002714
:1003300089CFDFD087CF22C011FE1FC04D2D409343
:10034000AF00482D4093AE004091B000842E6091E4
:10035000B100C2EB46D04091AF00D42E4091AE0028
:10036000842E4091B300433C11F043EC01C04BE4B8
:100370004093B30041E0142A65CF64CFFF2421E00D
:1003800018E04F2DE79408F042274795FF1C1A9577
:10039000C1F7EE242F2D2E7FF22E54CF573029F0A7
:1003A0005395881F5A95E9F789936C2F6D56C62E81
:1003B000CEE6A1E6BF93BB2749914D936A95E1F73D
:1003C000BF9164E56093600008954AEAF42E99278E
:1003D00099248824002733243092C80008956D2D75
:1003E000CFEC162F799137B33360232F48B34E7F6C
:1003F000426056E0779548BB37BB30E001C057E01C
:100400000000779508F0422748BB5A95C9F770FF5E
:1004100042271A95799148BB91F7582D503041F0F9
:10042000779508F0422748BB00005A95C9F77881B4
:1004300000004C7F48BB55E05A95F1F7C09AB89838
:10044000B99808954091D0004B3443EC09F04BE447
:100450004093D000089543EC4093D00040E840938F
:10046000CF00F0DF40E04093D1004093D20064E041
:10047000089544E0A42E40E84093CF0043EC40931D
:10048000D0001A2D6A2DC1EDC895099231966A9552
:10049000D9F762E0610FD2D0639563959394CFEC66
:1004A00047D0D62E9924D092B1008092B0006D2D05
:1004B000FF27EFECC2EB019009926A95E1F70895EE
:1004C00040E84093CC0042ED4093CD000895CF9397
:1004D0005F938F92CCEC62E0882483DF8F905F91F2
:1004E000CF91089540E84093C9004AE54093CA007F
:1004F00008958F92C9EC62E0882473DF8F9008958D
:1005000040E84093CF004EE14093D00062E0089570
:10051000CF936F936C0F4FEF47954881242F27950A
:10052000242720952993C617B9F76F91CF91089585
:10053000112777247A94CF936F93312F48E0340FAB
:100540006A95E9F726E06F916F936C0F6395639559
:10055000488158E0479508F027E02A95A1F437151F
:1005600026E088F43A95732E513011F459E0C39582
:100570005A9590FA1EF037D01A9502C01BD01395E9
:100580006F91CF91D8CF3A9521F05A9519F7C3952D
:10059000DFCF6F91CF9190FA3EF0103051F06A9515
:1005A000185F38F46A950895812E185010F06395FD
:1005B000812E0895452F59E0541B3881331F2FEFAA
:1005C000220F5A95E9F73223209526954881422338
:1005D000342B4881441F3993C61301C008953881D4
:1005E000331F3993F9CF452F59E0541B4C2F4395B6
:1005F000C62F3A9137953883C413FBCF3A9137957C
:100600002FEF5A9511F0220FFCCF3223209548810D
:100610004223342B38830895CF936F93C0E603D0E1
:100620006F91CF9108956C0F488138E04795221F54
:100630003A95E1F72993C617B9F70895CF936F93C9
:10064000CFEC0AD04095309539934883CA9562E043
:10065000EADF6F91CF9108956C0FC3954991433CA8
:1006600011F04B34A9F44FEF3FEF299118E037FB1D
:1006700050F95227441F331F4E7F2695579520F47B
:1006800050E8352755E045271A9589F7C61769F7C9
:100690000895C895099231966A95D9F72CC0C895E6
:1006A000099233FA36F43196C8950992E89433F8F2
:1006B00002C0002409923196625089F71CC0008064
:1006C000099231966A95D9F716C0EEBBFFBBE09A46
:1006D0000DB2099231966A95C1F70DC040E840937A
:1006E000CF0068E0C1ED332009F4D3CF32FCD7CF7F
:1006F00030FCE5CFEACF37FC3324A4DEC0ED08950B
:1007000006D09394CFEC14DFD62E99240895332489
:100710004091620030916300407609F41BC0403480
:10072000B1F0403209F013C0313059F0323051F09D
:10073000333049F0393041F03A3039F03B3031F064
:1007400095C094C093C092C091C090C08FC08EC01D
:1007500041E020C03030E9F03130D1F03330C1F029
:10076000353079F0363029F1373009F13830A9F0D9
:10077000393051F03A30B9F03B3051F03C30B9F0FB
:1007800075C0E090640072C0409164004093C8005E
:100790006DC042E0F8E0E4ED52C04091C80041E095
:1007A000F8E0E7EB4CC0F8E0EEEB41E048C0A8DE33
:1007B000089540916200413849F030916500313030
:1007C00071F0323081F03330D9F008953091650006
:1007D000313269F0323279F0333289F00895F8E03D
:1007E000E0EA42E12CC0F8E0E2EB42E228C0F8E0A7
:1007F000E4EC49E024C0F8E0E6ED4DE320C01FC082
:100800003CE0332E309164003030A1F0323051F0B2
:10081000333061F0313011F0BBCF28C0F9E0E8E1AE
:1008200042E60DC0F9E0EAE44EE109C0F9E0EAE58C
:100830004AEA05C03324F9E0E4E144E000C0A090B6
:100840006900AA2021F4A0906800A41608F0A42E44
:100850004A2DBB24477009F0B3944A2D469546951E
:100860004695B40E43EC4093D0000BC0F4DD0895E0
:1008700002D047DF08954B2D413011F4EFDD08958C
:10088000BA943A2D385018E018F41A2DBB24B394BA
:10089000A32E24DF62E0610FD1DE63956395089596
:1008A00012010001000000088282028000010102A2
:1008B0000001090222000101028050090400000128
:1008C00003000003092101010001223D0007058109
:1008D0000308000A000005010904A101050109013E
:1008E000A100093009311581257F75089502810223
:1008F000C01605091901290A150025017501950A77
:10090000550065008102090015012506750695014F
:100910008102C00004030902620328432920323007
:100920003038205061756C20517572657368692C80
:1009300020284329203230303320496E672E204949
:10094000676F72204365736B6F201E03526574726C
:100950006F204164617074657220AA035553422070
:10096000546F2041746172692F436F6D6D6F646FB6
:1009700072652F53617475726E2F4D6567612044E7
:10098000726976652F4D6173746572205379737443
:10099000656D2F46616D69636F6D2F53757065725C
:1009A0002046616D69636F6D20616461707465726A
:00000001FF
