:020000020000FC
:1000000012C0189518951895189518951895189563
:100010001895189518951895189518951895189578
:100020001895189518950FED0DBF00E00ABB0EEF5F
:100030000BBB01E007BB0EEF08BB00E401BB0FEDFB
:1000400002BB7724789400C08FEF9FEF839B26D06C
:1000500061D000FB96F901FB97F9839B1FD004FB4D
:1000600084F905FB86F9839B19D006FB87F907FB0A
:1000700085F9839B13D010FB95F911FB94F9839BB1
:100080000DD002FB80F903FB83F9839B07D012FBA1
:1000900092F913FB93F9839B01D0D8CF0F931F9351
:1000A0002F933F930FEF1BD0113081F42BD001E43D
:1000B00016D0123459F426D00AE511D023D0082FD7
:1000C0000ED020D0092F0BD01DD0D098839BFECF0F
:1000D000D0988D983F912F911F910F91089510E026
:1000E00028E08499FECF00FFD09A00FDD0980695B5
:1000F000849BFECF1695829910682A9591F70895F2
:10010000D09808950F938D9A0CE00A95F1F78D9889
:100110000F91089500271127C09A24E1839BBEDF29
:100120002A95E1F7C09838E096982AE0839BB6DFDD
:100130002A95E1F70695B1990068969A2AE0839B83
:10014000ADDF2A95E1F73A9579F734E096982AE001
:10015000839BA4DF2A95E1F71695B1991860969ACA
:100160002AE0839B9BDF2A95E1F73A9579F708957A
:00000001FF
