:020000020000FC
:1000000012C0189518951895189518951895189563
:100010001895189518951895189518951895189578
:100020001895189518950FED0DBF02E00ABB0DEF5E
:100030000BBB00E301BB0FEE02BB00E007BB0FEA06
:1000400008BB00E108600DB97724789400C08FEFF9
:100050009FEFBE98B39B26D077D000FB96F901FBAB
:1000600097F9B39B1FD004FB84F905FB86F9B39B7A
:1000700019D006FB87F907FB85F9B39B13D010FB5A
:1000800095F911FB94F9B39B0DD002FB80F903FBAA
:1000900083F9B39B07D012FB92F913FB93F9B39B3F
:1000A00001D0D8CF0F931F932F933F930FEF1FD003
:1000B0002AD01038A9F402E81AD02BD024D0123458
:1000C00071F40AE514D025D0082F2CD01CD00FD005
:1000D00020D0092F27D017D00AD01BD014D0BE981B
:1000E000B39BFECF3F912F911F910F9108951F93C6
:1000F0000FB9BE9ABF98BD98BB9810E41EB918E11D
:100100001DB91F910895B399EACF769BFCCF1FB11B
:1001100008950F93C498BC9A05E00A95F1F7BC982E
:100120000F9108950795111F0795111F0795111F2E
:100130000795111F0795111F0795111F0795111F8F
:100140000795111F012F089500271127949A24E184
:10015000B39BA8DF2A95E1F7949838E095982AE0B8
:10016000B39BA0DF2A95E1F7069583990068959ADD
:100170002AE0B39B97DF2A95E1F73A9579F734E0C7
:1001800095982AE0B39B8EDF2A95E1F7169583991F
:100190001860959A2AE0B39B85DF2A95E1F73A9596
:0401A00079F708954E
:00000001FF
