:020000020000FC
:1000000023C01895189518950EC0189510C018950E
:100010001895189518951895189518951895189578
:10002000189518951895BFB6A094BFBE1895BFB681
:100030003394D7FC07C0C394CD2021F4909AE09468
:10004000E0FE9098BFBE18950FED0DBF0FE0D02ECB
:1000500000E00ABB0EEF0BBB08E307BB0FEF08BBCA
:1000600001E001BB0FED02BB00E000BF05E003BFF4
:1000700009B7026009BF00E00FBD03E008600EBDD4
:1000800002E20BBD00E70ABD09B7006409BF2224E4
:10009000112455274424AA24332455246624772484
:1000A00078940FE013D02ED07EC00F931F932F9320
:1000B00004E21CEB20E52A95F1F7A8951A95D1F7F3
:1000C0000A95B9F72F911F910F910895002329F0F8
:1000D000D02E0FEFE02E909A08950D2D0068D02EAF
:1000E00090980895C59AC49A55D026B300E026FF8B
:1000F000039527FF039521FD0395033009F4089527
:1001000022240895C59AC49A45D026B300E026FF5C
:10011000039527FF039521FD0395033099F700E030
:10012000D5DFC3DF01E0202E772465D1012D22FF2A
:1001300000E0C598C4982ED026B322FF00E021FF2E
:1001400004E027FF05E026FF06E0C59AC49822D008
:1001500026B31FEF22FF712E21FF01E027FF03E0EE
:1001600026FF02E0102E5ED1772099F001E0AEDF8D
:100170000F931F932F9306E91CEB24EC2A95F1F7BC
:100180001A95D9F70A95C1F72F911F910F9100E0A9
:100190009DDF08954F9342E04A95F1F74F910895FE
:1001A00080CF2224ADCFD0989DDF2220C9F3839940
:1001B000FBCFF8948FEF9FEF44240FEF1CD011304A
:1001C00089F431D001E417D0123409F00BC077D094
:1001D0000AE511D0E4D070FC8860082F0CD07ED0E6
:1001E000092F09D07894839BFECFD0987BDF222003
:1001F00009F0D9CF56CF10E028E08499FECF00FF58
:10020000D09A00FDD0980695849BFECF16958299D2
:1002100010682A9591F7839901C00895E3CFD0988B
:1002200010E03FCF08958D9AC59AC498B3DF26B3E6
:100230005FEF22FF37C0F1E0E3E2012D0F73E00F23
:100240000027F01F099406C005C00BC011C015C0DF
:100250001BC021C021FF9F7B26FF9F7D27FF9D7F25
:100260002CC021FF9F7B26FF9F7D27FF977F25C006
:1002700021FF9F7727FF977F20C021FF9D7F26FFCB
:100280009F7B27FF977F19C026FF9F7D27FF9F77C2
:1002900021FF9F7B12C026FF9F7E27FF9F7D21FFAE
:1002A0009F770BC070FC07C026FF8E7F21FF877FE2
:1002B00027FF867E02C08E7FBECF8D9808958D9ACF
:1002C000C598C49A67DF26B327FF8F7B26FF8F7EF2
:1002D00021FF8F7722FF8F7D8D9808958D9AC59885
:1002E000C49858DF26B3F1E0EBE7012D0F73E00F60
:1002F0000027F01F099406C011C019C021C029C0F1
:1003000031C03DC021FF9F7727FF9F7E26FF9E7F44
:10031000152D1030F9F522FF977F3FC021FF9F7701
:1003200027FF9F7E26FF977F22FF9E7F36C021FFFB
:100330009F7E27FF9F7726FF9B7F22FF9D7F2DC0FB
:1003400021FF9F7B27FF9F7E26FF9F7D22FF9D7FB2
:1003500024C021FF9F7727FF9F7E26FF9F7D22FFDE
:100360009B7F1BC070FC19C0A0FC17C021FF9F7BA6
:1003700027FF9F7D26FF9F7722FF9F7E0EC021FFD4
:100380009F7727FF9F7E26FF9F7D22FF9F7E22FF74
:100390009F7D03C022FF439400C08D9808958D9ADD
:1003A000C59AC49AF7DE26B3F1E0ECED012D0F7388
:1003B000E00F0027F01F099406C005C007C003C066
:1003C00005C007C009C022FF9B7F0BC022FF9E7F94
:1003D00008C022FF9F7E05C022FF9F7E22FF9F77DD
:1003E00000C08D9808950F938D9A0CE00A95F1F74F
:1003F0008D980F9108950F931F93F0E0E0E00BD0DC
:10040000102E012D073018F41F910F91089511241B
:100410001F910F910895E199FECFEEBB3196E09ABE
:100420000DB308950F93F0E0E0E0012D02D00F919D
:100430000895E199FECFEEBB31960DBBE29AE19AA9
:0204400008951D
:00000001FF
