:1000000059C08CC270C06FC06EC06DC06CC06BC078
:100010006AC069C068C067C066C065C064C063C0AC
:1000200062C061C060C005010906A101050719E0B1
:1000300029E71500250175019508810295017508CC
:100040002565190029658100C000000D590D5A0D64
:100050005B0D5C0D5D0D5E0D5F0D60040309040A10
:10006000034D006F004A006F0016035100750069D0
:100070000063006B0020004B0065007900730012E4
:1000800001100100000008828280010001010200CD
:10009000010902220001010080320904000001036D
:1000A000000000092101010001222300070581034E
:1000B0000800320011241FBECFEDCDBF10E0A0E636
:1000C000B0E0E8EDF7E002C005900D92A236B1076E
:1000D000D9F710E0A2E6B0E001C01D92AC39B1073B
:1000E000E1F74CD077C38CCF20E030E0E6E3F0E0DE
:1000F000808190E0022E02C0959587950A94E2F7E0
:1001000080FD03C0822F8F5F08952F5F3F4F2830FF
:10011000310571F780E0089590E0880F991FFC0188
:10012000E75BFF4F85919491909363008093620009
:100130000895FC0182E690E0909381008093800016
:10014000808180768032C1F48181813021F4CCDFDE
:10015000E3DF82E00895823041F484E690E09093FA
:1001600081008093800081E008958A3029F48381A2
:100170008093640080E0089580E00895DF92EF921C
:10018000FF920F931F93CF93DF938FEF88BB17BA24
:1001900083EF82BBE1E3F0E08CE0808310822ED01D
:1001A000789400E010E0C1E7D0E00F2EF2E6EF2EE9
:1001B000F0E0FF2EF02DDD24D39401C012E030D00A
:1001C00093DF081711F0082F02C0113059F488810D
:1001D00084FD02C01D2DF3CF802F9EDFC70162E09A
:1001E0005AD102C0123059F7888184FFE7CF80E0EE
:1001F00093DFC70162E04FD110E0E1CFE5E5F0E029
:10020000808183608083EBE5F0E08081806480837F
:10021000E2E7F0E08BE4808331978AE580830895FC
:100220001F93CF93DF9380918200982F93500AF40D
:10023000B5C020917F0080917E008D3209F0ACC066
:10024000983009F0A9C08CE090E0821B9109FC0174
:10025000EA57FF4FEF0183EC809366008AE58093B5
:100260006000109265008081807621F0CF0161DF0F
:10027000982F89C0928110926F008181882331F478
:10028000E0E7F0E0108292E0319779C0853031F4F8
:100290009093830090E0EFE6F0E071C0863009F0C3
:1002A0004EC08381813041F48FE790E090938100CC
:1002B0008093800092E13FC0823041F481E990E078
:1002C000909381008093800092E235C08330F1F4F6
:1002D000992341F48BE590E0909381008093800016
:1002E00094E029C0913041F48FE590E09093810033
:1002F000809380009AE01FC09230E1F489E690E09C
:10030000909381008093800096E115C0813241F482
:1003100083EA90E0909381008093800099E00BC085
:10032000823241F486E290E09093810080938000D5
:1003300093E201C090E080E48093650024C088309F
:1003400021F491E0E5E8F0E01AC0893031F49093AF
:10035000850090E0EFE6F0E012C08A3021F491E0F1
:10036000EFE6F0E00CC08B3021F090E0EFE6F0E03B
:1003700006C08BE48093720090E0EFE6F0E0F0932B
:100380008100E09380008F81882321F48E8189177A
:1003900008F4982F90936100109282008091600081
:1003A00084FF56C0109161001F3F09F451C01930FD
:1003B00008F05BC010926100E6E6F0E0808198E80A
:1003C00089278083112309F45CC02091800030913B
:1003D00081008091650086FF14C0A7E6B0E080E050
:1003E00090E0F901E80FF91FE491ED9301961817D9
:1003F000C1F7812F815090E00196F901E80FF91FB4
:100400000FC0D901912FE7E6F0E08D9181939150D3
:10041000E1F7812F815090E00196F901E80FF91F73
:10042000F0938100E0938000193060F487E690E05B
:10043000612F70D0612F6C5F6C3040F48FEF809330
:10044000610004C08FEF809361006EE160936000F3
:100450009AE0E0E3F0E080818C70C9F49150D9F724
:100460001092830010927D0012C0812F88508093DB
:100470006100E6E6F0E0808198E88927808318E053
:10048000A4CF87E690E060E045D064E0D7CFDF916D
:10049000CF911F910895FF920F931F93DC01F62EC9
:1004A0008091710084FF07C0E2E7F0E0808198E866
:1004B0008927808303C08AE5809371009F2DE3E73D
:1004C000F0E08D91819391501916DCF303E710E071
:1004D000C8016F2D1FD08F2D8C5F02501040F80186
:1004E00080831F910F91FF900895A82FB92F80E06E
:1004F00090E041E050EA60956F5F58F42D9138EF3D
:1005000082279795879510F0842795273F5FC8F33A
:10051000F3CF0895EADF8D939D930895CF93CFB7DE
:10052000CF93839BFECF839B09C0839B07C0839B94
:1005300005C0839B03C0839B01C0A3C0DF93C09110
:100540007F00DD27CA57DF4F839B02C0DF91EBCFCF
:100550002F930F931F9300B32FEF03FB20F94F93BB
:100560003F9310B34FEF012703FB21F93BE031C06C
:100570004E7F012F10B3216028C0102F4D7F2260C5
:10058000000000B329C04B7F2460012F000010B38E
:100590002BC010B3477F28602AC04F7E00B3206174
:1005A0002CC04F7D10B320622FC04F7B00B320645E
:1005B00032C0422700B349934FEF0000102713FBCE
:1005C00020F910B31C70C9F1297F91F2012703FBB8
:1005D00021F900B3237F89F2315058F1102713FB22
:1005E00022F910B3277E79F2012703FB23F92F7C30
:1005F00081F200B3102713FB24F92F7971F200C0A8
:1006000010B3012703FB25F92F7359F200C000B383
:10061000102713FB26F9223040F200C010B3012747
:1006200003FB27F9243028F64F77206810B3000029
:10063000F9CF10E41ABF002719C03B503195C31BF6
:10064000D04010E41ABF0881033CF9F00B34E9F004
:1006500020917D001981110F1213EDCF4A81441FA3
:10066000093641F10D3211F0013E29F70093840063
:100670003F914F911F910F912F91DF91CAB7C6FD06
:1006800050CFCF91CFBFCF91189500918400002318
:1006900079F3109182001123A1F53430A2F1309347
:1006A000820000937E0010917F003BE0311B30936D
:1006B0007F0029C00091820001301CF50AE54F70CF
:1006C00049F43091600034FD20C000936000C6E61C
:1006D000D0E01FC03091710034FD17C0009371004D
:1006E000C2E7D0E016C0052710E002BB1FC00527F7
:1006F00022C0052727C005272CC0052710E002BB14
:1007000033C04AE503C042ED01C0432FC4E1D0E04D
:1007100032E011B31C60939A02B311BB5F935CE0AB
:1007200020E820FF052702BB279517951C3FD8F628
:1007300020FF0527279502BB17951C3FC0F620FF19
:1007400005272795179502BB1C3F98F620FF052724
:10075000279517951C3F02BB70F600C0499120FFFA
:10076000052702BB279517951C3F38F620FF052764
:10077000279502BB17951C3F38F520FF05272795C5
:10078000179502BB1C3F10F520FF052727951795ED
:100790001C3F02BBE8F4242F3A9519F6037F5F91C2
:1007A00002BB10918300110FC651D04011F010937D
:1007B0007D0010E41ABF086011B3137F402F437F00
:1007C00002BB11BB42BB54CF0527D3CF0527D8CFDF
:0807D0000527DDCFF894FFCFEF
:0207D8005AFFC6
:00000001FF
