:020000020000FC
:1000000023C018951895189512C018950CC018950E
:100010001895189518951895189518951895189578
:10002000189518951895BFB6A094BFBE1895BFB681
:100030003394D7FC07C0C394CD2021F4959AE09463
:10004000E0FE9598BFBE18950FE50DBF04E00EBF0A
:100050000FE0D02E0CE201BB0FED02BB01E104BBAF
:100060000FE305BB00E807BB0FE708BB05E003BFD4
:1000700000E00FBD03E008600EBD02E20BBD00E72B
:100080000ABD00E109BF07E005BD00E002BD09B7F8
:10009000006409BF2224112455274424AA243324B0
:1000A000552493D278940FEB702E802E35D20FE02A
:1000B00076D205B30F6105BB26D060D24CD22CD2CC
:1000C000C1C00F931F932F9304E21CEB20E52A95E8
:1000D000F1F7A8951A95D1F70A95B9F72F911F91C5
:1000E0000F910895929A939A2ED020B316B300E000
:1000F00021FF039520FF039516FD0395033009F4B6
:10010000089522240895929A939A1DD020B316B38D
:1001100000E021FF039520FF039516FD03950330B2
:1001200091F700E03CD2CDDF01E0202E112D1F7BA6
:10013000112E929A939807D020B324FD0895112D83
:100140001064112E08954F9342E04A95F1F74F91B4
:100150000895C8DF222039F0929A9398F4DF20B3F3
:1001600024FFF7CF0895089501E019D23324F1DF79
:10017000B9DF2220C1F35FEF012D0F73412D407CC9
:10018000352D929A9398DFDF20B316B321FF02E05A
:1001900020FF03E016FF01E024FD3324929893989A
:1001A000D2DF20B316B321FF06E020FF05E016FFE3
:1001B00004E024FF32E0929A939AC5DF20B324FF33
:1001C00031E09298939ABFDF20B316B321FF2AD073
:1001D00020FF00E016FF4F7724FF4068042B011535
:1001E00021F0102ECBD1B7D197D1531689F0532ED1
:1001F000323039F0313001F024E42BBD24ED2ABD3A
:1002000005C022E22BBD20E72ABD00C0A4D184D1C5
:10021000032D003209F0ACCFFCD100E0C0D199DF52
:10022000332408952F9324E42BBD24ED2ABD1124FB
:1002300055244424002733274427A0D18CD16CD1E6
:100240002F9108950CE201BB07ED02BB30E04ADFBD
:10025000222061F103B302FDFACF8FEF9FEF442418
:100260000FEF41D0113091F466D001E43CD012344C
:1002700069F4AED00AE537D025D130D0082F33D07D
:10028000C9D019D0092F2FD030E032BF32B7303E5D
:1002900018F403B302FFFACF222041F0503011F0DE
:1002A0003324D4CF032D003410F4D0CFFCCEAC9A3D
:1002B000A89A5ADFCBCF16FC10C0052D003069F08C
:1002C00017FC06C0442049F0AA2039F4906F05C0FD
:1002D000442019F4AA2009F4906F089516FE02C074
:1002E00088603324089510E028E030E032BF32B750
:1002F000303EC0F433B331FDFACF35B3306100FF87
:100300003F7E35BB069530E032BF32B7303E50F409
:1003100033B331FFFACF33B3169533FD10682A9506
:1003200021F70895A8980000000000000000A89A96
:1003300010E0B9CE0895A898929A939804DF20B35C
:1003400016B35FEFF1E0EAEA012D0F73E00F00272B
:10035000F01F099406C005C00DC015C01BC023C006
:100360002BC021FF9F7D20FF9D7F16FF9F7B24FFD9
:1003700055272BC021FF9F7D20FF9D7F16FF9F7B70
:1003800024FF877F22C020FF977F16FF9F7724FFDF
:1003900055271BC021FF9F7B20FF977F16FF9D7F66
:1003A00024FD552712C021FF9F7D20FF9F7716FF58
:1003B0009F7B24FF552709C021FF9F7E20FF9F7D43
:1003C00016FF9F7724FF552700C005E0A89A0895DF
:1003D000A89822B32B7F286022BBB5DE20B316B3CA
:1003E00020FF8F7B503069F416FF8E7F16FF332479
:1003F00024FF877F24FF332421FF867E21FF3324BF
:1004000006C021FF8F7E16FF8F7724FF8F7D05E0CA
:10041000A89A0895A89822B3237F22BB94DE20B324
:1004200016B3F2E0E9E1012D0F73E00F0027F01F92
:10043000099406C011C010C018C020C028C031C027
:1004400016FF9F7720FF9F7E21FF9E7F152D103086
:1004500099F524FF977F33C016FF9F7720FF9F7E7B
:1004600021FF977F24FF9E7F2AC016FF9F7B20FFDE
:100470009F7E21FF9F7D24FF9D7F21C016FF9F77D8
:1004800020FF9F7E21FF9F7D24FF9B7F18C0A0FA45
:1004900016FF96F920FF95F921FF97F924FF94F9AB
:1004A0000EC016FF9F7720FF9F7E21FF9F7D24FFB8
:1004B0009F7E24FF9F7D03C024FF439400C005E07E
:1004C000A89A0895A89822B32C6022BB3CDE20B3E2
:1004D00016B3F2E0E1E7012D0F73E00F0027F01FE4
:1004E000099406C005C007C003C008C00AC00CC0FC
:1004F00024FF9B7F0EC024FF8E7F0BC024FF9E7FB6
:1005000008C024FF9F7E05C024FF9F7E24FF9F77A5
:1005100000C007E0A89A08950F931F93BF9A92987E
:100520009398C798082D18E0929A07FF9298939A8B
:100530009398000F1A95C1F7072D18E0929A07FFBC
:100540009298939A9398000F1A95C1F7C79AC798F3
:100550001F910F9108950F931F93052D003039F0CF
:10056000013009F002C007EC03C009E801C00FEB3D
:1005700017FC0F77802E1F910F9108950F931F93F3
:10058000012D0F7310E0F5E0E6EBE00FF11FC895C9
:10059000002D16FC0F77702E1F910F9108950023E8
:1005A00029F0D02E0FEFE02E959A08950D2D0068BA
:1005B000D02E95980895C0F9A4B0999282F88098A9
:1005C000A18883A78991A4C7AF920F931F93F0E0EE
:1005D000E0E017D0102E15D0502E13D0152D112578
:1005E000011751F4012D0F73073030F4052D03303E
:1005F00018F41F910F910895112455241F910F9104
:100600000895E199FECFFFBBEEBB3196E09A0DB3A2
:1006100008950F93F0E0E0E0012D06D0052D04D001
:10062000012502D00F910895E199FECFFFBBEEBBEB
:0A06300031960DBBE29AE19A08959D
:00000001FF
