:020000020000FC
:1000000023C01895189518950EC0189510C018950E
:100010001895189518951895189518951895189578
:10002000189518951895BFB6A094BFBE1895BFB681
:100030003394D7FC07C0C394CD2021F4D99AE0941F
:10004000E0FED998BFBE18950FED0DBF0FE0D02E82
:1000500003E00ABB0FEF0BBB00E007BB0FEA08BBD6
:1000600000E108600DB903E001BB0FEF02BB00E047
:1000700000BF05E003BF09B7026009BF00E00FBD84
:1000800003E008600EBD02E20BBD00E70ABD09B740
:10009000006409BF2224112455274424AA243324B0
:1000A00055246624772478940FE013D02ED0ACC06A
:1000B0000F931F932F9304E21CEB20E52A95F1F791
:1000C000A8951A95D1F70A95B9F72F911F910F911D
:1000D0000895002329F0D02E0FEFE02ED99A08952D
:1000E0000D2D0068D02ED9980895919A909A83D0BA
:1000F00020B300E025FF039524FF039523FD03951E
:10010000033009F4089522240895919A909A73D0A7
:1001100020B300E025FF039524FF039523FD0395FD
:10012000033099F700E0D5DFC3DF01E0202E77240C
:10013000B8D1012D22FF00E0919890985CD020B3B7
:1001400022FF00E023FF04E024FF05E025FF06E096
:10015000919A909850D020B31FEF22FF712E23FF69
:1001600001E024FF03E025FF02E018C0102EB0D10B
:10017000772099F001E0ADDF0F931F932F9306E9ED
:100180001CEB24EC2A95F1F71A95D9F70A95C1F7DB
:100190002F911F910F9100E09CDF0CC002E0102E08
:1001A00009C001E096DF84DF83DF82DF81DF00E0CA
:1001B00090DF08950027919A909A1DD020B3209542
:1001C0002470022B919817D020B320952C73022B0A
:1001D000909811D020B320952C73022B919A0BD0BC
:1001E00020B320952C73022B002321F702E303D0C8
:1001F0000A95E9F708954F9342E04A95F1F74F9138
:10020000089552CF22247FCFBE986FDF2220C9F3FA
:10021000B399FBCFF89442D08FEF9FEF44240FEFB8
:100220002BD03FD085D034D01038F1F402E824D060
:1002300010D181D0E9D02CD0123409F015C00AE5D4
:100240001BD007D1E4D081D070FC8860082F09D181
:100250001FD012D0FED07CD021D0092F02D118D0CF
:100260000BD0F7D015D0BE987894B39BFECF3DDF6E
:10027000222009F0C9CF18CF1F930FB9BE9ABF989B
:10028000BD98BB9810E41EB918E11DB91F910895DF
:10029000B399EACF769BFCCF1FB10895919A9098BD
:1002A000089520B35FEF22FF877FF1E0EDE5012D98
:1002B0000F73E00F0027F01F099406C005C00BC0A4
:1002C00011C015C01BC021C023FF9F7B25FF9F7D50
:1002D00024FF9D7F089523FF9F7B25FF9F7D24FFA3
:1002E0009D7F089523FF9F7724FF977F089523FF25
:1002F0009D7F25FF9F7B24FF977F089525FF9F7D8E
:1003000024FF9F7723FF9F7B089525FF9F7E24FF77
:100310009F7D23FF9F77089570FC07C025FF8E7F88
:1003200023FF877F24FF867E08958E7F089508959A
:100330009198909A089520B324FF8F7B25FF8F7E9C
:1003400023FF8F7722FF8F7D0895919890980895CD
:1003500020B3F1E0E1EB012D0F73E00F0027F01F58
:10036000099406C011C019C021C029C031C03DC0C8
:1003700023FF9F7724FF9F7E25FF9E7F152D103042
:10038000F9F522FF977F3FC023FF9F7724FF9F7ED1
:1003900025FF977F22FF9E7F36C023FF9F7724FF94
:1003A0009F7E25FF977F22FF9E7F2DC023FF9F7B8F
:1003B00024FF9F7E25FF9F7D22FF9D7F24C023FF7A
:1003C0009F7724FF9F7E25FF9F7D22FF9B7F1BC081
:1003D00070FC19C0A0FC17C023FF9F7B24FF9F7DEA
:1003E00025FF9F7722FF9F7E0EC023FF9F7724FF6C
:1003F0009F7E25FF9F7D22FF9F7E22FF9F7D03C062
:1004000022FF439400C00895919A909A089520B3D2
:10041000F2E0E0E1012D0F73E00F0027F01F0994D7
:1004200006C005C007C003C008C00AC00CC022FF38
:100430009B7F0EC022FF8E7F0BC022FF9E7F08C0D5
:1004400022FF9F7E05C022FF9F7E22FF9F7700C074
:1004500008950F93BC9A05E00A95F1F7BC980F91A7
:1004600008950795111F0795111F0795111F0795EF
:10047000111F0795111F0795111F0795111F07954C
:10048000111F012F0895BC9ABC98BC9ABC98BC9AC5
:10049000BC98BC9ABC9808950000000000000000C1
:1004A00008950F931F93F0E0E0E00BD0102E012D84
:1004B000073018F41F910F91089511241F910F9187
:1004C0000895E199FECFEEBB3196E09A0DB3089501
:1004D0000F93F0E0E0E0012D02D00F910895E19933
:0E04E000FECFEEBB31960DBBE29AE19A089575
:00000001FF
