:020000020000FC
:1000000023C018951895189512C018950CC018950E
:100010001895189518951895189518951895189578
:10002000189518951895BFB6A094BFBE1895BFB681
:100030003394D7FC07C0C394CD2021F4959AE09463
:10004000E0FE9598BFBE18950FE50DBF04E00EBF0A
:100050000FE0D02E0CE201BB0FED02BB01E104BBAF
:100060000FE305BB00E807BB0FE708BB05E003BFD4
:1000700000E00FBD03E008600EBD02E20BBD00E72B
:100080000ABD00E109BF07E005BD00E002BD09B7F8
:10009000006409BF2224112455274424AA243324B0
:1000A00055246624F4D278940FEB702E802E96D2CD
:1000B0000FE0D7D205B30F6105BB43D015D0C0D236
:1000C000ACD28CD2F7C00F931F932F9304E21CEB9A
:1000D00020E52A95F1F7A8951A95D1F70A95B9F771
:1000E0002F911F910F9108950F9387990DC001E0F3
:1000F000061509F413C001E0602E552402E0102E0D
:100100009FD28BD26BD20AC000E0061509F406C05C
:100110006624112495D281D261D200C00F91089536
:10012000929A939A45D020B316B300E021FF03952D
:1001300020FF039516FD0395033009F4089522244A
:100140000895929A939A34D020B316B300E021FF19
:10015000039520FF039516FD0395033091F700E00A
:1001600080D2B1DF01E0202E112D1F7B112E929A3B
:1001700093981ED020B324FD0895112D1064112EE4
:1001800055245ED24AD22AD201E06BD20F931F933C
:100190002F9306E91CEB24EC2A95F1F71A95D9F771
:1001A0000A95C1F72F911F910F9100E05AD208953F
:1001B0004F9342E04A95F1F74F910895B1DF222025
:1001C00039F0929A9398F4DF20B324FFF7CF089583
:1001D000089501E046D23324F1DFA2DF2220C1F3EB
:1001E0005FEF012D0F73412D407C352D929A93982E
:1001F000DFDF20B316B321FF02E020FF03E016FF8C
:1002000001E024FD332492989398D2DF20B316B3F3
:1002100021FF06E020FF05E016FF04E024FF32E0A6
:10022000929A939AC5DF20B324FF31E09298939A73
:10023000BFDF20B316B321FF2AD020FF00E016FF56
:100240004F7724FF4068042B011521F0102EF8D1C0
:10025000E4D1C4D1531689F0532E323039F0313005
:1002600001F024E42BBD24ED2ABD05C022E22BBD04
:1002700020E72ABD00C0D1D1B1D1032D003209F051
:10028000ACCF29D200E0EDD199DF332408952F932C
:1002900024E42BBD24ED2ABD112455244424002739
:1002A00033274427CDD1B9D199D12F910895FCCED0
:1002B000222445CF0CE201BB07ED02BB0FEF08BBC8
:1002C00000E807BBB09907C002E0102E5524332484
:1002D000B7D1A3D183D1AC9A07DF22DF222039F333
:1002E0009A99FBCF8FEF9FEF44240FEF6AD0113024
:1002F00081F57DD003E765D0123459F5C2D00AE507
:1003000060D02FD159D0082F5CD0CBD042D0092F4C
:1003100058D04CD10FE755D049D10FE752D046D134
:10032000B0990FC00FE785FF0FEF87FF00E049D0BE
:100330003DD10FE786FF0FEF84FF00E042D036D1BA
:1003400006C00FE73ED032D10FE73BD02FD130E0CF
:1003500032BF32B7303F18F403B302FFFACFAC9A82
:10036000DFDE222089F00FEF082309230F3F11F071
:100370003324B1CF662009F0AECF503009F03324DA
:10038000032D003410F4A7CF8FCEAC9AA89A21DFAA
:10039000A2CF16FC10C0052D003069F017FC06C076
:1003A000442049F0AA2039F4906F05C0442019F484
:1003B000AA2009F4906F089516FE02C088603324C5
:1003C000089510E028E09999FECF00FFAC9800FD59
:1003D000AC9A0695999BFECF16959B9910682A9525
:1003E00091F70895AC9AEAD010E05ECE0895A898EF
:1003F000929A9398DDDE20B316B35FEF24FF37C0E7
:10040000F2E0E8E0012D0F73E00F0027F01F0994E0
:1004100006C005C00BC011C015C01BC021C016FF0F
:100420009F7B21FF9F7D20FF9D7F29C016FF9F7B23
:1004300021FF9F7D20FF977F22C016FF9F7720FF1F
:10044000977F1DC016FF9D7F21FF9F7B20FF977F19
:1004500016C021FF9F7D20FF9F7716FF9F7B0FC057
:1004600021FF9F7E20FF9F7D16FF9F7708C05527A5
:1004700016FF877F21FF8E7F20FF867E00C0A89A0F
:100480000895A8989298939A93DE20B316B320FF0C
:100490008F7B21FF8F7E16FF8F7724FF8F7DA89A99
:1004A0000895A8989298939883DE20B316B3F2E04B
:1004B000EFE5012D0F73E00F0027F01F099406C030
:1004C00011C019C021C029C031C03AC016FF9F77A2
:1004D00020FF9F7E21FF9E7F152D1030E1F524FF28
:1004E000977F3CC016FF9F7720FF9F7E21FF977F5D
:1004F00024FF9E7F33C016FF9F7720FF9F7E21FF42
:10050000977F24FF9D7F2AC016FF9F7B20FF9F7E41
:1005100021FF9F7D24FF9D7F21C016FF9F7720FF35
:100520009F7E21FF9F7D24FF9B7F18C0A0FA16FFAE
:1005300096F920FF95F921FF97F924FF94F90EC051
:1005400016FF9F7720FF9F7E21FF9F7D24FF9F7EC8
:1005500024FF9F7D03C024FF439400C005E0A89AB8
:100560000895A898929A939A23DE20B316B3F2E0E6
:10057000EFEB012D0F73E00F0027F01F099406C069
:1005800005C007C003C005C007C009C024FF9B7F8A
:100590000BC024FF9E7F08C024FF9F7E05C024FF60
:1005A0009F7E24FF9F7700C0A89A08950F93A89874
:1005B0000CE00A95F1F7A89A0F910895A89AA898C7
:1005C000A89AA898A89AA898A89AA898A89AA89823
:1005D000A89AA898A89AA898A89A08950F931F93E4
:1005E000BF9A92989398C798082D18E0929A07FF9F
:1005F0009298939A9398000F1A95C1F7072D18E0D7
:10060000929A07FF9298939A9398000F1A95C1F7C0
:10061000C79AC7981F910F9108950F931F93052DA7
:10062000003039F0013009F002C007EC03C009E8DE
:1006300001C00FEB17FC0F77802E1F910F910895CB
:100640000F931F93012D0F7310E0F6E0EAE7E00F20
:10065000F11FC895002D16FC0F77702E1F910F917A
:100660000895002329F0D02E0FEFE02E959A0895DB
:100670000D2D0068D02E95980895C0F9A4B09992D8
:1006800082F88098A18883A78991A4C7AF920F931D
:100690001F93F0E0E0E017D0102E15D0502E13D0AD
:1006A000152D1125011751F4012D0F73073030F46A
:1006B000052D033018F41F910F910895112455242E
:1006C0001F910F910895E199FECFFFBBEEBB3196CC
:1006D000E09A0DB308950F93F0E0E0E0012D06D00D
:1006E000052D04D0012502D00F910895E199FECF88
:0E06F000FFBBEEBB31960DBBE29AE19A089576
:00000001FF
