:020000020000FC
:1000000023C01895189518950EC0189510C018950E
:100010001895189518951895189518951895189578
:10002000189518951895BFB6A094BFBE1895BFB681
:100030003394D7FC07C0C394CD2021F4D99AE0941F
:10004000E0FED998BFBE18950FED0DBF0FE0D02E82
:1000500003E00ABB0FEF0BBB00E007BB0FEA08BBD6
:1000600000E108600DB903E001BB0FEF02BB00E047
:1000700000BF05E003BF09B7026009BF00E00FBD84
:1000800003E008600EBD02E20BBD00E70ABD09B740
:10009000006409BF2224112455274424AA243324B0
:1000A00055246624772478940FE013D02ED0ABC06B
:1000B0000F931F932F9304E21CEB20E52A95F1F791
:1000C000A8951A95D1F70A95B9F72F911F910F911D
:1000D0000895002329F0D02E0FEFE02ED99A08952D
:1000E0000D2D0068D02ED9980895919A909A82D0BB
:1000F00020B300E025FF039524FF039523FD03951E
:10010000033009F4089522240895919A909A72D0A8
:1001100020B300E025FF039524FF039523FD0395FD
:10012000033099F700E0D5DFC3DF01E0202E77240C
:10013000A5D1012D22FF00E0919890985BD020B3CB
:1001400022FF00E023FF04E024FF05E025FF06E096
:10015000919A90984FD020B31FEF22FF712E23FF6A
:1001600001E024FF03E025FF02E0102E9ED177205E
:1001700099F001E0AEDF0F931F932F9306E91CEB7C
:1001800024EC2A95F1F71A95D9F70A95C1F72F9122
:100190001F910F9100E09DDF0CC002E0102E09C0FE
:1001A00001E097DF85DF84DF83DF82DF00E091DF1E
:1001B00008950027919A909A1DD020B3209524701D
:1001C000022B919817D020B320952C73022B909876
:1001D00011D020B320952C73022B919A0BD020B311
:1001E00020952C73022B002321F702E303D00A95FC
:1001F000E9F708954F9342E04A95F1F74F9108953A
:1002000053CF222480CFBE9870DF2220C9F3B39948
:10021000FBCFF89442D08FEF9FEF44240FEF2BD009
:100220003FD07DD034D01038F1F402E824D0FED095
:1002300079D0D9D02CD0123409F015C00AE51BD0E2
:10024000F5D0D4D079D070FC8860082FF7D01FD0BB
:1002500012D0ECD074D021D0092FF0D018D00BD010
:10026000E5D015D0BE987894B39BFECF3EDF222018
:1002700009F0C9CF19CF1F930FB9BE9ABF98BD9887
:10028000BB9810E41EB918E11DB91F910895B399E8
:10029000EACF769BFCCF1FB10895919A909808956C
:1002A00020B35FEFF1E0EAE5012D0F73E00F0027C7
:1002B000F01F099406C005C00BC00BC00FC015C0CD
:1002C0001BC023FF9F7B25FF9F7D24FF9D7F0895FB
:1002D000089523FF9F7724FF977F089523FF9F7B37
:1002E00025FF9D7F24FF977F089525FF9F7D24FF95
:1002F0009F7723FF9F7B089525FF9F7E24FF9F7D8F
:1003000023FF9F77089570FC07C025FF8E7F23FF92
:10031000877F24FF867E08958E7F089508959198A3
:10032000909A089520B324FF8F7B25FF8F7E23FFB3
:100330008F7722FF8F7D089591989098089520B32C
:10034000F1E0E8EA012D0F73E00F0027F01F099498
:1003500006C011C019C019C021C029C035C023FF73
:100360009F7724FF9F7E25FF9E7F152D1030B9F5C6
:1003700022FF977F37C023FF9F7724FF9F7E25FFB3
:10038000977F22FF9E7F2EC02DC023FF9F7B24FFDF
:100390009F7E25FF9F7D22FF9D7F24C023FF9F7EA0
:1003A00024FF9F7725FF9F7D22FF9B7F1BC070FC52
:1003B00019C0A0FC17C023FF9F7B24FF9F7D25FF52
:1003C0009F7722FF9F7E0EC023FF9F7724FF9F7E93
:1003D00025FF9F7D22FF9F7E22FF9F7D03C022FF7E
:1003E000439400C00895919A909A089520B3F1E043
:1003F000EFEF012D0F73E00F0027F01F099406C0E7
:1004000005C007C003C006C008C00AC022FF9B7F0A
:100410000CC00BC022FF9E7F08C022FF9F7E05C03C
:1004200022FF9F7E22FF9F7700C008950F93BC9A02
:1004300005E00A95F1F7BC980F9108950795111FF3
:100440000795111F0795111F0795111F0795111F7C
:100450000795111F0795111F0795111F012F08956B
:10046000BC9ABC98BC9ABC98BC9ABC98BC9ABC98E4
:100470000895000000000000000008950F931F93EE
:10048000F0E0E0E00BD0102E012D073018F41F91A2
:100490000F91089511241F910F910895E199FECFB6
:1004A000EEBB3196E09A0DB308950F93F0E0E0E0D3
:1004B000012D02D00F910895E199FECFEEBB319648
:0804C0000DBBE29AE19A0895D8
:00000001FF
