:020000020000FC
:1000000023C018951895189512C018950CC018950E
:100010001895189518951895189518951895189578
:10002000189518951895BFB6A094BFBE1895BFB681
:100030003394D7FC07C0C394CD2021F4959AE09463
:10004000E0FE9598BFBE18950FE50DBF04E00EBF0A
:100050000FE0D02E0CE201BB0FED02BB01E104BBAF
:100060000FE305BB00E807BB0FE708BB05E003BFD4
:1000700000E00FBD03E008600EBD02E20BBD00E72B
:100080000ABD00E109BF07E005BD00E002BD09B7F8
:10009000006409BF2224112455274424AA243324B0
:1000A0005524662414D378940FEB702E802EB6D28C
:1000B0000FE0F7D205B30F6105BB43D015D0E0D2F6
:1000C000CCD2ACD2F7C00F931F932F9304E21CEB5A
:1000D00020E52A95F1F7A8951A95D1F70A95B9F771
:1000E0002F911F910F9108950F9387990DC001E0F3
:1000F000061509F413C001E0602E552402E0102E0D
:10010000BFD2ABD28BD20AC000E0061509F406C0FC
:1001100066241124B5D2A1D281D200C00F910895D6
:10012000929A939A45D020B316B300E021FF03952D
:1001300020FF039516FD0395033009F4089522244A
:100140000895929A939A34D020B316B300E021FF19
:10015000039520FF039516FD0395033091F700E00A
:10016000A0D2B1DF01E0202E112D1F7B112E929A1B
:1001700093981ED020B324FD0895112D1064112EE4
:1001800055247ED26AD24AD201E08BD20F931F93BC
:100190002F9306E91CEB24EC2A95F1F71A95D9F771
:1001A0000A95C1F72F911F910F9100E07AD208951F
:1001B0004F9342E04A95F1F74F910895B1DF222025
:1001C00039F0929A9398F4DF20B324FFF7CF089583
:1001D000089501E066D23324F1DFA2DF2220C1F3CB
:1001E0005FEF012D0F73412D407C352D929A93982E
:1001F000DFDF20B316B321FF02E020FF03E016FF8C
:1002000001E024FD332492989398D2DF20B316B3F3
:1002100021FF06E020FF05E016FF04E024FF32E0A6
:10022000929A939AC5DF20B324FF31E09298939A73
:10023000BFDF20B316B321FF2AD020FF00E016FF56
:100240004F7724FF4068042B011521F0102E18D29F
:1002500004D2E4D1531689F0532E323039F03130C4
:1002600001F024E42BBD24ED2ABD05C022E22BBD04
:1002700020E72ABD00C0F1D1D1D1032D003209F011
:10028000ACCF49D200E00DD299DF332408952F93EB
:1002900024E42BBD24ED2ABD112455244424002739
:1002A00033274427EDD1D9D1B9D12F910895FCCE70
:1002B000222445CF0CE201BB07ED02BB0FEF08BBC8
:1002C00000E807BBB09907C002E0102E5524332484
:1002D000D7D1C3D1A3D1AC9A07DF22DF222039F3D3
:1002E0009A99FBCFF8948FEF9FEF44240FEF85D0BE
:1002F000113071F59BD001E480D0123409F028C090
:10030000E1D00AE57AD04DD172D0082F76D0EAD06C
:100310005BD0092F72D06AD10FE76FD067D10FE79A
:100320006CD064D1B09B0EC00FE785FF0FEF87FF45
:1003300000E063D05BD10FE786FF0FEF84FF00E0A2
:100340005CD006C00FE759D051D10FE756D04ED13F
:10035000789430E032BF32B7303F18F403B302FF75
:10036000FACFAC9ADDDE222089F00FEF08230923B3
:100370000F3F11F03324AFCF662009F0ACCF5030DF
:1003800009F03324032D003410F4A5CF8DCEAC9AA0
:10039000A89A1FDFA0CF0AE530D028D103E02DD0E6
:1003A00025D102E02AD022D101E027D01FD102E0DE
:1003B00024D01CD101E021D019D100E01ED016D1EB
:1003C00000E01BD013D1C4CF16FC10C0052D0030A7
:1003D00069F017FC06C0442049F0AA2039F4906F58
:1003E00005C0442019F4AA2009F4906F089516FE60
:1003F00003C0886081603324089510E028E0999953
:10040000FECF00FFAC9800FDAC9A0695999BFECFFD
:1004100016959B9910682A9591F79A9901C00895AD
:1004200097CFAC9AEBD010E03FCE0895A898929A5F
:100430009398BEDE20B316B35FEF24FF37C0F2E01F
:10044000E7E2012D0F73E00F0027F01F099406C0AB
:1004500005C00BC011C015C01BC021C016FF9F7B7B
:1004600021FF9F7D20FF9D7F2BC016FF9F7B21FFDB
:100470009F7D20FF977F24C016FF9F7720FF977FE7
:100480001FC016FF9D7F21FF9F7B20FF977F18C015
:1004900021FF9F7D20FF9F7716FF9F7B11C021FFCB
:1004A0009F7E20FF9F7D16FF9F770AC0552716FC71
:1004B00007C016FF877F21FF8E7F20FF867E00C04A
:1004C000A89A0895A8989298939A72DE20B316B3CA
:1004D00020FF8F7B21FF8F7E16FF8F7724FF8F7D7C
:1004E000A89A0895A8989298939862DE20B316B3BC
:1004F000F2E0E0E8012D0F73E00F0027F01F0994F0
:1005000006C011C019C021C029C031C03AC016FFB1
:100510009F7720FF9F7E21FF9E7F152D1030E1F5F4
:1005200024FF977F3CC016FF9F7720FF9F7E21FF0F
:10053000977F24FF9E7F33C016FF9F7720FF9F7E0B
:1005400021FF977F24FF9D7F2AC016FF9F7B20FFFE
:100550009F7E21FF9F7D24FF9D7F21C016FF9F77F7
:1005600020FF9F7E21FF9F7D24FF9B7F18C0A0FA64
:1005700016FF96F920FF95F921FF97F924FF94F9CA
:100580000EC016FF9F7720FF9F7E21FF9F7D24FFD7
:100590009F7E24FF9F7D03C024FF439400C0A89A40
:1005A0000895A898929A939A03DE20B316B3F2E0C6
:1005B000EFED012D0F73E00F0027F01F099406C027
:1005C00005C007C003C005C007C009C024FF9B7F4A
:1005D0000BC024FF9E7F08C024FF9F7E05C024FF20
:1005E0009F7E24FF9F7700C0A89A08950F93A89834
:1005F0000CE00A95F1F7A89A0F910895A89AA89887
:10060000A89AA898A89AA898A89AA898A89AA898E2
:10061000A89AA898A89AA898A89A08950F931F93A3
:10062000BF9A92989398C798082D18E0929A07FF5E
:100630009298939A9398000F1A95C1F7072D18E096
:10064000929A07FF9298939A9398000F1A95C1F780
:10065000C79AC7981F910F9108950F931F93052D67
:10066000003039F0013009F002C007EC03C009E89E
:1006700001C00FEB17FC0F77802E1F910F9108958B
:100680000F931F93012D0F7310E0F6E0EAEBE00FDC
:10069000F11FC895002D16FC0F77702E1F910F913A
:1006A0000895002329F0D02E0FEFE02E959A08959B
:1006B0000D2D0068D02E95980895C0F9A4B0999298
:1006C00082F88098A18883A78991A4C7AF920F93DD
:1006D0001F93F0E0E0E017D0102E15D0502E13D06D
:1006E000152D1125011751F4012D0F73073030F42A
:1006F000052D033018F41F910F91089511245524EE
:100700001F910F910895E199FECFFFBBEEBB31968B
:10071000E09A0DB308950F93F0E0E0E0012D06D0CC
:10072000052D04D0012502D00F910895E199FECF47
:10073000FFBBEEBB31960DBBE29AE19A08950F9391
:100740001F932F9301E0ADDF00E810E020E02A9531
:10075000F1F71A95D9F70A95C1F72F911F910F91CB
:020760000895FA
:00000001FF
