:1000000012C019C018C017C016C015C014C013C044
:1000100012C011C010C00FC00EC00DC00CC00BC06C
:100020000AC009C008C011241FBECFE5D4E0DEBF5E
:10003000CDBF64D0CAC0E4CF8FEE87BB18BA8DEFB6
:1000400084BB83E085BB8FEF81BB12BA0895A5E323
:10005000B0E09C9190619C93E8E3F0E090819D7DFD
:10006000908382BB8C9188608C9320EA3FE0C90129
:100070000197F1F78C91877F8C93C9010197F1F774
:100080000895A5E3B0E09C919F7E9C93E8E3F0E0A7
:1000900090819062908320EA3FE0F9013197F1F777
:1000A00082BB8C9188608C93C9010197F1F78C9188
:1000B000877F8C93662331F0E8E3F0E080818260F3
:1000C000808305C0E8E3F0E080818D7F8083E8E3F2
:1000D000F0E080818B7F808380EA9FE00197F1F7D9
:1000E00080818460808328EE33E040E951E0CA01DA
:1000F0000197F1F721503040D1F708956F927F9228
:100100008F929F92AF92BF92CF92DF92EF92FF9227
:100110000F931F93CF93DF938FDF0F2EF3E3CF2E39
:10012000DD24F02D05E310E00F2EF8E3EF2EFF2481
:10013000F02D0F2EF0EAAF2EFFE0BF2EF02D0F2E88
:10014000F0E18F2EF7E29F2EF02DC0E9D1E00F2EC7
:10015000F2E36F2E7724F02DF601808181FDFCCF34
:10016000F80180818B7C8083F70180818D7D808385
:1001700080818D608083C5010197F1F7F80180814E
:100180008E7F8083C5010197F1F780E460DF8FEDFA
:1001900061E077DF80E45BDF82E660E072DF94019C
:1001A000CE010197F1F721503040D1F7F80180815D
:1001B00081608083F3011082F7018081807D8083DC
:0E01C000F80180818B7C8083C7CFF894FFCF3D
:00000001FF
