:020000020000FC
:1000000023C018951895189512C018950CC018950E
:100010001895189518951895189518951895189578
:10002000189518951895BFB6A094BFBE1895BFB681
:100030003394D7FC07C0C394CD2021F4959AE09463
:10004000E0FE9598BFBE18950FE50DBF04E00EBF0A
:100050000FE0D02E0CE201BB0FED02BB01E104BBAF
:100060000FE305BB00E807BB0FE708BB05E003BFD4
:1000700000E00FBD03E008600EBD02E20BBD00E72B
:100080000ABD00E109BF07E005BD00E002BD09B7F8
:10009000006409BF2224112455274424AA243324B0
:1000A0005524662423D100EC702E802EC6D000E0AB
:1000B00007D112D05DC00F931F932F9304E21CEB66
:1000C00020E52A95F1F7A8951A95D1F70A95B9F781
:1000D0002F911F910F9108950F9387990DC001E003
:1000E000061509F413C001E0602E552402E0102E1D
:1000F000D6D0C2D0A2D00AC000E0061509F406C0CE
:1001000066241124CCD0B8D098D000C00F910895A7
:100110000FEF1FEF00271127939A24E19A9B52D0EB
:100120002A95E1F7939838E092982AE09A9B4AD072
:100130002A95E1F7069581990068929A2AE09A9BA0
:1001400041D02A95E1F73A9579F734E092982AE080
:100150009A9B38D02A95E1F7169581991860929A62
:100160002AE09A9B2FD02A95E1F73A9579F70895DE
:100170008FEF9FEF9A9B26D0CBDF00FB96F901FB18
:1001800097F99A9B1FD002FB80F903FB83F99A9B96
:1001900019D004FB84F905FB86F99A9B13D006FB62
:1001A00087F907FB85F99A9B0DD010FB95F911FB98
:1001B00094F99A9B07D012FB92F913FB93F99A9B3F
:1001C00001D0D8CF0F931F932F933F930FEF1AD0E7
:1001D000113079F42AD001E415D0123451F425D02D
:1001E0000AE510D022D0082F0DD01FD0092F0AD039
:1001F0001CD09A9BFECFAC9AA89A3F912F911F9149
:100200000F91089510E028E09999FECF00FFAC9877
:1002100000FDAC9A0695999BFECF16959B991068A8
:100220002A9591F70895AC9A08950F93A8980CE039
:100230000A95F1F7A89A0F9108950F931F93BF9A0B
:1002400092989398C798082D18E0929A07FF929871
:10025000939A9398000F1A95C1F7072D18E0929A78
:1002600007FF9298939A9398000F1A95C1F7C79A2F
:10027000C7981F910F9108950F931F93052D00307C
:1002800039F0013009F002C007EC03C009E801C0F1
:100290000FEB17FC0F77802E1F910F9108950F938E
:1002A0001F93012D0F7310E0F2E0E8EDE00FF11F56
:1002B000C895002D16FC0F77702E1F910F91089591
:1002C000002329F0D02E0FEFE02E959A08950D2DE2
:1002D0000068D02E95980895C0F9A4B0999282F83C
:1002E0008098A18883A78991A4C7AF920F931F9389
:1002F000F0E0E0E017D0102E15D0502E13D0152DC1
:100300001125011751F4012D0F73073030F4052D1D
:10031000033018F41F910F910895112455241F9153
:100320000F910895E199FECFFFBBEEBB3196E09AA5
:100330000DB308950F93F0E0E0E0012D06D0052DF8
:1003400004D0012502D00F910895E199FECFFFBBA3
:10035000EEBB31960DBBE29AE19A08950F931F937D
:100360002F9301E0ADDF00E810E020E02A95F1F7DF
:100370001A95D9F70A95C1F72F911F910F910895FA
:00000001FF
