:020000020000FC
:1000000001C01AC101E00EBF0FE50DBFD99AD99802
:10001000D99AD998D99AD998D99AD998D99AD99850
:10002000D99AD998D99AD998D99AD998D99AD99840
:10003000D99AD998D99AD998D99AD998D99AD99830
:10004000D99AD998D99AD998D99AD998D99AD99820
:10005000D99AD99866247724882433244424AA245E
:10006000BB24CC24DD24EE24FF24C398C698BB987F
:10007000BE98B998C19AD898D09AD998D19ADA9856
:10008000D29A02E005BF00E40BBF20E030E000E0C0
:1000900010E05FEF5A95F1F756E95A95F1F760E0F5
:1000A000A2D0C3D086D0262F84D0362F82D0062F60
:1000B0005FEF5A95F1F756E95A95F1F7253039F087
:1000C00004E1501611F7F89466247724DECF552406
:1000D00020E030E000E010E0002461E084D0A5D012
:1000E000D89AD89866D0262F64D0362F62D0062FA3
:1000F00060D0162F60E0061609F0C7CF6FE7060F35
:10010000160FC02ED12E00E0601689F100E010E03D
:1001100027FD016026FD026060E025FD106425FDDD
:100120006FEFE62E60E0B19B1062B19B6FEFF62E91
:1001300024FD006123FD186022FD146021FD116083
:1001400020FD12606FEF35FD462E35FF442434FD4F
:10015000106132FD086030FD086033FD046031FD40
:1001600004601068A02EB12E2DD178948ECF6C2C07
:100170007D2CD99A0000D89A0000D9980000D89810
:1001800002D0789482CF5FEF5A95F1F756E95A95ED
:10019000F1F702E263E027D060E825D061E023D0E8
:1001A00060E821D00A95E1F740D003D002D001D019
:1001B000089560E054E148E05A95A1F0B399FCCF6E
:1001C00058E05A95F1F7660F00000000B39961609E
:1001D00060FDD89AD89854E15A9521F0B39BFCCF92
:1001E0004A9551F7089548E067FD0FC0BB9A5EE05D
:1001F0005A95F1F70000BB9852E05A95F1F70000CC
:100200000000660F4A9581F70895BB9A53E05A950E
:10021000F1F7000000000000BB985EE05A95F1F78E
:100220000000660F4A9501F70895BB9A54E05A956D
:10023000F1F70000BB980895002403940F931F93D7
:100240005F934F936F9300E047E054E15A95D1F0EC
:10025000B69BFCCF54E15A95A9F0B699FCCF58E073
:100260005A95F1F7000FD99AD998B69901604A9535
:1002700061F70034E1F11BD0003009F4F1C0013422
:1002800009F4CDC054E15A95F1F7D99AD998D99A81
:10029000D998D99AD998D99AD998D99AD998D99ACE
:1002A000D9986F914F915F911F910F91189552E3DB
:1002B0005A9541F3B69BFCCF52E35A9519F3B69980
:1002C000FCCF52E35A95F1F2B69BFCCF089554E16E
:1002D0005A95F1F7D99AD998D99AD998D99AD9989B
:1002E000D99AD998D99AD998D99AD998DACF48E091
:1002F00000E054E15A9531F2B69BFCCF54E15A9597
:1003000009F2B699FCCF58E05A95F1F7000FD99A47
:10031000D998B69901604A9561F748E054E15A9539
:10032000B1F2B69BFCCF54E15A9589F2B699FCCF55
:1003300058E05A95F1F7110FD99AD998B6991160EA
:100340004A9561F7B4DF033069F5332410FD339427
:100350004420A1F46A2D97D06B2D95D06C2D93D0AD
:100360006D2D91D0662D8FD0672D8DD06E2D8BD0B9
:100370006F2D89D0ABD0D99AD99893CF6A2D83D0DD
:100380006B2D81D0662D7FD0672D7DD06C2D7BD0DD
:100390006D2D79D06E2D77D06F2D75D097D0D99ADD
:1003A000D9987FCF54E15A95F1F7D99AD998D99A2B
:1003B000D998D99AD998D99AD998D99AD998D99AAD
:1003C000D9986FCF5AEF5A95F1F756E95A95F1F748
:1003D000DA9ADA98332089F4882400E263E003DFB4
:1003E00060EC01DF6BE1FFDE60E0FDDE0A95E1F726
:1003F0001CDFDFDEDEDEDDDE08958824839400E28C
:1004000063E0F1DE60ECEFDE6BE1EDDE61E0EBDEA0
:100410000A95E1F70ADFCDDECCDECBDE089551E0B0
:100420005A95F1F70000000000000000D99AD99811
:1004300060E029D060E827D0662D25D0672D23D035
:10044000662D21D0672D1FD060E01DD060E01BD04D
:1004500062E019D062E017D039D0D99AD99821CF6B
:1004600051E05A95F1F70000000000000000D99A11
:10047000D99869E008D060E006D060E204D026D0C8
:10048000D99AD9980ECF48E067FD0FC0BE9A5EE0BA
:100490005A95F1F70000BE9852E05A95F1F7000026
:1004A0000000660F4A9581F70895BE9A52E05A956A
:1004B000F1F700000000BE985EE05A95F1F7D89A77
:1004C000D8980000660F4A95F9F6089559E05A95B4
:0E04D000F1F7BE9A52E05A95F1F7BE980895E2
:00000001FF
