:1000000050C00DC369C068C067C066C065C064C029
:1000100063C062C061C060C05FC05EC05DC05CC0E4
:100020005BC05AC059C005010906A101050719E0C6
:1000300029E71500250175019508810295017508CC
:100040002565190029658100C0040309040A034DD0
:10005000006F004A006F0016034D006100630072DC
:10006000006F0020004B0065007900730012011042
:1000700001000000088282800200010102000109E3
:100080000222000101008032090400000103000087
:100090000009210101000122230007058103080056
:1000A0000A0011241FBECFE5D4E0DEBFCDBF10E0B3
:1000B000A0E6B0E0EAEDF8E002C005900D92A236AD
:1000C000B107D9F710E0A2E6B0E001C01D92AC394B
:1000D000B107E1F74DD0FFC393CFFC0182E690E07A
:1000E000909381008093800080818076803211F02F
:1000F00080E008958181813049F0823069F08A3052
:10010000B9F783818093640080E0089510926200C3
:100110001092630082E0089584E690E0909381005D
:100120008093800081E00895982F8091710084FD74
:1001300005C000008091710084FFFBCF1092620027
:100140009093630082E690E062E02ED2809171008D
:1001500084FD05C000008091710084FFFBCF1092E8
:1001600062001092630082E690E062E01DD2089582
:10017000EF92FF920F931F938FEF88BB17BA85BB47
:1001800014BA83EF82BB8CE081BB11BAC3D07894E0
:1001900000E09BE2F92E88E2E82E03C01DE0101774
:1001A00001F5C5D0989B22C0999B92C09A9B92C0A2
:1001B0009B9B92C09C9B92C09D9B92C0B09B92C007
:1001C000B19B94C0B29B94C0B39B94C0B49B94C0A9
:1001D000B59B94C0809BE2CF80990CC01EE01017A5
:1001E00001F3112391F4A3D09899DECF80E0182F6A
:1001F0001F5FD5CF849B84C0859B86C0869B86C0AD
:10020000879B86C010E0CBCF00008091710084FFF7
:10021000FBCF10926200F092630082E690E062E011
:10022000C3D18091710084FD05C0000080917100F0
:1002300084FFFBCF109262001092630082E690E090
:1002400062E0B2D1012F01C000008091710084FFF3
:10025000FBCF10926200F092630082E690E062E0D1
:10026000A3D18091710084FD05C0000080917100D0
:1002700084FFFBCF109262001092630082E690E050
:1002800062E092D1015009F78091710084FD05C0B0
:1002900000008091710084FFFBCF10926200E09219
:1002A000630082E690E062E07FD18091710084FD7E
:1002B00005C000008091710084FFFBCF10926200A6
:1002C0001092630082E690E062E06ED1012F69CF68
:1002D00081E08DCF82E08BCF83E089CF84E087CF30
:1002E00085E085CF80E0182F195F59CF81E0FBCFE3
:1002F00082E0F9CF83E0F7CF84E0F5CF85E0F3CF5C
:1003000084E0182F115F4BCF85E0FBCF86E0F9CF5B
:1003100087E0F7CF85B7836085BF8BB780648BBFDD
:100320008BE4809372008AE58093710008951F9397
:10033000CF93DF9390918200935097FD09C0209155
:100340007F0080917E008D3209F467C01092820098
:100350008091600084FF3BC0109161001F3FB9F1A4
:10036000193008F487C0185010936100809166001E
:1003700098E889278093660018E0209180003091EA
:1003800081008091650086FF8BC0A7E6B0E080E029
:1003900090E0F901E80FF91FE491ED930196181729
:1003A000C1F71150812F90E01F5F0196820F931FBC
:1003B000909381008093800087E690E0612F2BD19D
:1003C000612F6C5F6C3009F065C06093600080B392
:1003D0008C70F9F480B38C70E1F480B38C70C9F444
:1003E00080B38C70B1F480B38C7099F480B38C704E
:1003F00081F480B38C7069F480B38C7051F480B355
:100400008C7039F480B38C7021F4109283001092B8
:100410007D00DF91CF911F910895983009F096CF1C
:10042000CCE0D0E0C21BD109CA57DF4F83EC8093E8
:1004300066008AE58093600010926500888180766E
:10044000C1F59A8110926F0089818823B1F51092CD
:10045000700022E08FE690E090938100809380000E
:100460008F81882321F48E81821708F4282F20930E
:1004700061006CCF109261008091660098E8892736
:1004800080936600112309F078CF87E690E060E062
:10049000C2D064E08FEF809361006093600097CFDB
:1004A000912FD901E7E6F0E08D9181939150E1F72A
:1004B00078CFCE0112DE282FD3CF853071F0863071
:1004C00091F0883001F1893011F18A3031F18B30AF
:1004D000C1F120E08FE690E0BFCF9093830020E051
:1004E0008FE690E0B9CF8B818130D9F0823009F16D
:1004F000833099F1813249F18232C9F120E080E400
:1005000080936500ADCF21E085E890E0A5CF909382
:10051000850020E08FE690E09FCF21E08FE690E01D
:100520009BCF8DE690E0909381008093800022E144
:10053000E6CF8FE790E0909381008093800022E2E5
:10054000DECF8BE480937200C4CF81E990E090937A
:1005500081008093800029E0D2CF992381F489E43F
:1005600090E0909381008093800024E0C8CF86E2E1
:1005700090E0909381008093800023E2C0CF91307F
:1005800059F0923009F0BACF87E590E0909381005E
:100590008093800026E1B3CF8DE490E090938100BA
:1005A000809380002AE0ABCF1F93DC01162F80914F
:1005B000710084FF17C08091720098E889278093AA
:1005C0007200912FE3E7F0E08D918193915019161D
:1005D000DCF383E790E0612F1ED01C5F1093710065
:1005E0001F9108958AE580937100EBCFA82FB92F52
:1005F00080E090E041E050EA60956F5F58F42D9103
:1006000038EF82279795879510F0842795273F5FCD
:10061000C8F3F3CF0895EADF8D939D930895CF93A8
:10062000CFB7CF93839BFECF839B09C0839B07C02B
:10063000839B05C0839B03C0839B01C0A3C0DF9342
:10064000C0917F00DD27CA57DF4F839B02C0DF9137
:10065000EBCF2F930F931F9300B32FEF03FB20F9E2
:100660004F933F9310B34FEF012703FB21F93BE07A
:1006700031C04E7F012F10B3216028C0102F4D7F55
:100680002260000000B329C04B7F2460012F0000CE
:1006900010B32BC010B3477F28602AC04F7E00B331
:1006A00020612CC04F7D10B320622FC04F7B00B360
:1006B000206432C0422700B349934FEF0000102757
:1006C00013FB20F910B31C70C9F1297F91F20127A7
:1006D00003FB21F900B3237F89F2315058F1102731
:1006E00013FB22F910B3277E79F2012703FB23F9CC
:1006F0002F7C81F200B3102713FB24F92F7971F2BC
:1007000000C010B3012703FB25F92F7359F200C075
:1007100000B3102713FB26F9223040F200C010B3BB
:10072000012703FB27F9243028F64F77206810B300
:100730000000F9CF10E41ABF002719C03B503195D3
:10074000C31BD04010E41ABF0881033CF9F00B34FE
:10075000E9F020917D001981110F1213EDCF4A812C
:10076000441F093641F10D3211F0013E29F7009383
:1007700084003F914F911F910F912F91DF91CAB744
:10078000C6FD50CFCF91CFBFCF9118950091840077
:10079000002379F3109182001123A1F53430A2F1E6
:1007A0003093820000937E0010917F003BE0311B6C
:1007B00030937F0029C00091820001301CF50AE5CA
:1007C0004F7049F43091600034FD20C00093600008
:1007D000C6E6D0E01FC03091710034FD17C0009311
:1007E0007100C2E7D0E016C0052710E002BB1FC0B1
:1007F000052722C0052727C005272CC0052710E0A4
:1008000002BB33C04AE503C042ED01C0432FC4E13F
:10081000D0E032E011B31C60939A02B311BB5F9336
:100820005CE020E820FF052702BB279517951C3FB9
:10083000D8F620FF0527279502BB17951C3FC0F669
:1008400020FF05272795179502BB1C3F98F620FF30
:100850000527279517951C3F02BB70F600C04991EC
:1008600020FF052702BB279517951C3F38F620FF70
:100870000527279502BB17951C3F38F520FF052754
:100880002795179502BB1C3F10F520FF05272795DC
:1008900017951C3F02BBE8F4242F3A9519F6037F05
:1008A0005F9102BB10918300110FC651D04011F02F
:1008B00010937D0010E41ABF086011B3137F402F1E
:1008C000437F02BB11BB42BB54CF0527D3CF0527C3
:0A08D000D8CF0527DDCFF894FFCF45
:0208DA005AFFC3
:00000001FF
