:020000020000FC
:1000000012C0189518951895189518951895189563
:100010001895189518951895189518951895189578
:10002000189518951895A8954FE94DBFA8954FEFCD
:1000300047BB4FEF48BB42E0A89533D04A95E1F764
:1000400040E048BB0000FECFC39AC398C39AC39850
:10005000C39AC398C39AC398C39AC398C39AC398C0
:10006000C39AC398C39AC398C39AC398C39AC398B0
:10007000C39AC398C39AC398C39AC398C39AC398A0
:10008000C39AC398C39AC398C39AC398C39AC39890
:10009000C39AC398D7CFC39A0000C398000000004A
:1000A000D1CF13E328EF3CEF3A95F1F72A95D9F732
:0800B0001A95A895B9F708950F
:00000001FF
